:1000000081EF03F00000000000EF00F000000000AE
:0A0010000000000000000000F3D71C
:0A001C00210E0D6E0D2EFED712000E
:100026000F0E0C6E470E0D6E0D2EFED70C2EFCD746
:06003600000000001200B2
:06003C00000000001200AC
:100042000001CFBF02D0839E01D0838ECFBD02D0EC
:10005200839C01D0838CCFBB02D0839A01D0838A48
:10006200CFB902D0839801D08388ADB102D0848405
:1000720001D084948482E1DF8492CFB702D0839E40
:1000820001D0838ECFB502D0839C01D0838CCFB3B5
:1000920002D0839A01D0838ACFB102D0839801D053
:1000A2008388ADB102D0848401D084948482C5DF78
:0E00B2008492ADA102D0B6DF01D0AFDF120004
:0E00C0000001AD91CCC0CFF0BCDFAD811200CD
:1000CE00C7B409D01F0EC514016E0150000A03E11A
:0A00DE00010E006E01D0006A12004E
:1000E80010D0800E0001CC6F1AD0C00ECC6F17D084
:1000F800940ECC6F14D0D40ECC6F11D0800ECC6F70
:100108000ED00001CC51010AECE0CC51020AEDE01E
:10011800CC51030AEDE0CC51040AEDE0EFD7CD0550
:10012800006ECC51002600C0CCF0AD8100C0CFF0ED
:0E01380084DFAD91CEC0CFF080DFAD8112002C
:100146000001C76BC86BC851120802E1C7518E087F
:1001560008E3BADF005201E004D00001C74BC82B08
:10016600F2D70001120EC85D02E18F0EC75D03E3F0
:100176007B0E006E05D0C580C5A001D0FDD7006AF4
:02018600120065
:100188000B6A0A6A096A00500402F4CF09F0F3CF37
:1001980008F001500502F4CF0BF0F3CF0AF000503D
:1001A8000502F3500926F4500A22E86A0B2201508E
:1001B8000402F3500926F4500A22E86A0B2208C008
:1001C80000F009C001F00AC002F00BC003F01200F1
:1001D800949894968B988B9694889486C79EC79C7F
:0601E800380EC66E120085
:0C01EE000E0E0D6E0D2EFED7000012004C
:0401FA00C5841200A6
:1001FE00C9C0CEF00001CE33CE9FCE33CE9FCE33CC
:10020E00CE9FCE33CE9F300ECE27C7C0CCF0C8C007
:10021E00CDF063DF0F0EC915CC6F300ECC2749DF42
:02022E001200BC
:1002300024D0230E0001AB6F000EAC6F32D02B0E1A
:10024000AB6F000EAC6F2DD0400EAB6F000EAC6FDD
:1002500028D0460EAB6F000EAC6F23D0330EAB6FC1
:10026000000EAC6F1ED03A0EAB6F000EAC6F19D003
:10027000150EAB6F000EAC6F14D00001AA51010A2D
:10028000D8E0AA51020ADBE0AA51030ADDE0AA5134
:10029000040ADFE0AA51050AE1E0AA51060AE3E0F8
:0402A000E7D712008A
:0A02A400C582C5A201D0FDD71200EB
:1002AE009E96C5869EB601D0FDD7C9CF01F000013E
:1002BE00C751000A02E1C58A01D0C59A9E96C5882B
:0C02CE009EB601D0FDD701C000F0120068
:1002DA0010D0800E0001C76F1AD0C00EC76F17D09A
:1002EA00940EC76F14D0D40EC76F11D0800EC76F8B
:1002FA000ED00001C751010AECE0C751020AEDE035
:10030A00C751030AEDE0C751040AEDE0EFD7C8056B
:10031A00006EC751002600C0C7F000C0CFF08CDEC7
:10032A00AD91CB6BCB51C925E96E000ECA21EA6E9D
:10033A00EE520BE0CB51C925E96E000ECA21EA6ED6
:0E034A00EECFCCF0B8DECB2BEDD7AD8112009C
:100358009E96C7C0C9FFC7A401D0FDD79EB601D0DD
:10036800FDD7C5BC02D0006A03D0C584020E006E5A
:02037800120071
:10037A000C0E0001B66F050EB76FC30EB86F000EF4
:10038A00B96F1A0EBA6F050EBB6F000EBC6F000E66
:10039A00BD6F020EAE6F050EAF6F000EB06F000E8E
:1003AA00B16FFF0EB26FFF0EB36F000EB46F000E87
:1003BA00B56FAC8A900EAB6E948E949C9EAA03D0B5
:0803CA00AECF00F0FBD71200DA
:1003D200C26A070EC012C08EC3C000F00036009081
:1003E200003600900050C212C28000DFC282C2A258
:1003F20001D0FDD7C4CF01F0006AC3500012000E35
:060402000112C29012007D
:10040800140EC86EE5DE9BDED00E0001C76FA0DFBC
:100418000001C76B9DDF040E0001C76F99DF120E44
:100428000001C76F95DF090E0001C76F91DF030E4A
:100438000001C76F8DDF150E0001C76F89DF070E3A
:100448000001C76F85DF090E0001C76F81DFD1DEAC
:02045800120090
:10045A00969296949598959A959C959E8492849452
:10046A00839E839C839A8398D9DDD8DDD7DD838ADE
:10047A0083888482DEDD8492D1DD8482DADD84920F
:10048A00CDDD8482D6DD8492C9DD83988482D1DD74
:10049A008492C4DD8482CDDD8492839A838E8482A1
:1004AA00C8DD8492BBDD839E83888482C2DD849208
:1004BA0083988482BEDD8492B1DD8482BADD84921F
:1004CA0083888482B6DD8492A9DD83988482B1DD33
:1004DA008492838E838C838A83888482AADD849221
:0804EA009DDD0001AD8112004F
:1004F2000900F5CFE6FF0006FBE10106F9E1120073
:0A050200000E9EBA010E006E1200FA
:0E050C00ACB202D00000FCD7C3C0ADFF12009D
:10051A00AECF01F0ABA202D0AB98AB8801C000F01D
:02052A001200BD
:10052C000CDED00E0001C76F11DF0001C76B0EDFB0
:10053C00B3DED10E0001C76F09DF010E0001C76FDA
:10054C00B0DE00C0A6F0010E0001C76FAADE00C02D
:10055C00A4F0010E0001C76FA4DE00C0A5F0010ECF
:10056C000001C76F9EDE00C0AAF0010E0001C76F2C
:10057C0098DE00C0A8F0010E0001C76F92DE00C02B
:10058C00A9F00001C76B8DDE00C0A7F030DE1200B1
:10059C00010E0001C76F010EC86F1C0EC96F000E53
:1005AC00CA6F95DE010EC76F070EC86FA5C0C9F0E4
:1005BC0020DE3A0ECC6F7EDD010EC76F0A0EC86FBF
:1005CC00A4C0C9F016DE3A0ECC6F74DD010EC76FF5
:1005DC000D0EC86FA6C0C9F00CDE020EC76F010E5F
:1005EC00C86F4D0EC96F000ECA6F71DE020EC76F59
:1005FC00070EC86FA8C0C9F0FCDD2F0ECC6F5ADDFA
:10060C00020EC76F0A0EC86FA9C0C9F0F2DD2F0E1B
:10061C00CC6F50DD020EC76F0D0EC86FA7C0C9F0AE
:10062C00E8DD00DE030EC76F010EC86FABC0C9F06A
:08063C00ACC0CAF04CDE120054
:10064400CB50010F006E016A000E0122C3C004F0FA
:10065400000E056E97DD060E026E00C004F001C0A8
:1006640005F0025005E005320432059EFF0FFAD76B
:10067400040E016E04C000F0015004E00036009046
:10068400FF0FFBD7300E0014036E04C000F005C04A
:1006940001F001320032019E01320032019E00C09D
:0C06A400BEFF0F0EBD160350BD12120069
:0806B000BE6ABD98BD9A12005C
:0A06B8009494CA840C0EBD121200C7
:1006C200086A096A100E0C6E0134083609360450A5
:1006D200085E0550D8A0053C095ED8B007D004508A
:1006E20008260550D8B0053C0926D89000360136B8
:0606F2000C2EEAD71200F5
:0A06F8009484CA94F00EBD1612009F
:10070200BBEC05F0010E0001C16F000EC26F0E0EB0
:10071200C16E956A9492936A816A0F0EC16E929825
:10072200929A949A070EB46E97DE010ECF6F88DC10
:100732000C0ECF6F85DC67DEB886B06ACF0EAF6E67
:10074200AC841ADE00018190819281948196819815
:10075200819A819C819E819A020EC36F39DE00C00C
:100762007DF001C07EF000C07DF001C07EF07E32DF
:100772007D327E9E060E0C6E300E0D6E0D2EFED755
:100782000C2EFCD70000000E7E5C02E1190E7D5C8F
:100792000CE3CA80CA92630ECB6E89DF050E7D021E
:1007A200F3CFC3F04EDF87DF01D0A5DF7DC0BEF0FF
:1007B2007EC0BFF0060E0C6E300E0D6E0D2EFED7F3
:1007C2000C2EFCD700000A0E046E000E056EBEC091
:1007D20000F0BFC001F074DF08C000F009C001F0F2
:1007E200620E0024E96E000E0120EA6EEECF83FF56
:1007F200808A060E0C6E300E0D6E0D2EFED70C2E5C
:10080200FCD70000809A0A0E046E000E056EBEC070
:1008120000F0BFC001F054DF00C0BEF001C0BFF065
:100822000A0E046E000E056E4BDF08C000F009C010
:1008320001F0620E0024E96E000E0120EA6EEECF96
:1008420083FF8088060E0C6E300E0D6E0D2EFED7C5
:100852000C2EFCD700008098060E0C6E300E0D6E2A
:100862000D2EFED70C2EFCD70000000E0001C2197F
:1008720002E1000EC11941E1540EC36F46DE010EC2
:100882000001C76F010EC86F6C0EC96F000ECA6FF0
:1008920023DD020EC76F010EC86F940EC96F000EE2
:1008A200CA6F1ADD820E0C6EDD0E0D6E0D2EFED796
:1008B2000C2EFCD70000000023DE00521EE02CDECE
:1008C20000C0C0F0820E0C6EDD0E0D6E0D2EFED736
:1008D2000C2EFCD7000000000001C051530A0DE1AC
:1008E200020EC76F0A0EC86F9D0EC96F000ECA6F47
:1008F200F3DCC0C0CCF060EC00F0000EC21902E1E3
:10090200010EC119D8A4ECD0FBDD0052D8B4E8D056
:1009120003DE00C0C0F0820E0C6EDD0E0D6E0D2ED9
:10092200FED70C2EFCD7000000000001C0514D0A7A
:10093200D8A48FD0010ECF6F21EC00F0010EC76F4B
:10094200010EC86F7F0EC96F000ECA6FC5DC020EA2
:10095200C76F010EC86F8B0EC96F000ECA6FBCDC69
:100962005750581068E1827281808182020E0B6EAC
:10097200040E0C6EBA0E0D6E0D2EFED70C2EFCD789
:100982000B2EFAD700008184020E0B6E040E0C6E41
:10099200BA0E0D6E0D2EFED70C2EFCD70B2EFAD7EB
:1009A20000008186020E0B6E040E0C6EBA0E0D6EE6
:1009B2000D2EFED70C2EFCD70B2EFAD70000818805
:1009C200020E0B6E040E0C6EBA0E0D6E0D2EFED7BD
:1009D2000C2EFCD70B2EFAD70000818A020E0B6E6A
:1009E200040E0C6EBA0E0D6E0D2EFED70C2EFCD719
:1009F2000B2EFAD70000818C020E0B6E040E0C6EC9
:100A0200BA0E0D6E0D2EFED70C2EFCD70B2EFAD77A
:100A12000000818E020E0B6E040E0C6EBA0E0D6E6D
:100A22000D2EFED70C2EFCD70B2EFAD70000010E8E
:100A3200576E000E586E0B0E0B6E260E0C6E5D0E70
:100A42000D6E0D2EFED70C2EFCD70B2EFAD7000002
:100A52000000C0514E0A21E1010ECF6F21EC00F0DF
:100A6200010EC76F010EC86F590EC96F000ECA6F13
:100A720033DC020EC76F010EC86F540EC96F000E31
:100A8200CA6F2ADC828281908192819481968198B8
:100A9200819A819C819E576A586AC051460A12E126
:100AA200010ECF6F21EC00F078DD3FDD030E0B6EFF
:100AB200080E0C6E770E0D6E0D2EFED70C2EFCD787
:100AC2000B2EFAD7500E0001C36F1FDD820E0C6E83
:100AD200DD0E0D6E0D2EFED70C2EFCD70000000091
:040AE20031D6FFD733
:100B760010EE15F08F0E006E010E016EE60EF66E8B
:0E0B86000A0EF76E000EF86E79EC02F0120007
:070AE60053414241444F005F
:070AED0028486F7261290027
:080AF400444F4D494E474F00ED
:080AFC00534547554E444100EB
:070B04005155494E54410018
:060B0B005345585441005F
:060B11005445524341006F
:070B17005155415254410009
:070B1E002844617461290005
:030B25004F4B0033
:020B28000000CB
:090B2A00534954554143414F0069
:0A0B33003F065B4F666D7D077F6F84
:100B3D005049432053656E642F5265636569766530
:010B4D0000A7
:020B4E000000A5
:0C0B5000534954554143414F203A2000C6
:090B5C00494E43454E44494F0047
:090B650053656E64203D2054002C
:070B6E005265632E3D2000DB
:020000040030CA
:0D000100021F1EFF8381FF0FC00FE00F40A4
:00000001FF
